{
  "_format": "hh-sol-artifact-1",
  "contractName": "StrategyV1Factory",
  "sourceName": "contracts/StrategyV1Factory.sol",
  "abi": [
    {
      "inputs": [],
      "stateMutability": "nonpayable",
      "type": "constructor"
    },
    {
      "anonymous": false,
      "inputs": [
        {
          "indexed": true,
          "internalType": "address",
          "name": "previousOwner",
          "type": "address"
        },
        {
          "indexed": true,
          "internalType": "address",
          "name": "newOwner",
          "type": "address"
        }
      ],
      "name": "OwnershipTransferred",
      "type": "event"
    },
    {
      "anonymous": false,
      "inputs": [
        {
          "indexed": true,
          "internalType": "address",
          "name": "creator",
          "type": "address"
        },
        {
          "indexed": false,
          "internalType": "string",
          "name": "symbol",
          "type": "string"
        },
        {
          "indexed": false,
          "internalType": "uint256",
          "name": "start",
          "type": "uint256"
        },
        {
          "indexed": false,
          "internalType": "uint256",
          "name": "end",
          "type": "uint256"
        },
        {
          "indexed": false,
          "internalType": "address",
          "name": "strategy",
          "type": "address"
        },
        {
          "indexed": false,
          "internalType": "uint256",
          "name": "strategyListLength",
          "type": "uint256"
        }
      ],
      "name": "StrategyCreated",
      "type": "event"
    },
    {
      "inputs": [
        {
          "internalType": "string",
          "name": "symbol",
          "type": "string"
        },
        {
          "internalType": "uint256",
          "name": "start",
          "type": "uint256"
        },
        {
          "internalType": "uint256",
          "name": "end",
          "type": "uint256"
        }
      ],
      "name": "createStrategy",
      "outputs": [],
      "stateMutability": "nonpayable",
      "type": "function"
    },
    {
      "inputs": [
        {
          "internalType": "string",
          "name": "",
          "type": "string"
        },
        {
          "internalType": "uint256",
          "name": "",
          "type": "uint256"
        },
        {
          "internalType": "uint256",
          "name": "",
          "type": "uint256"
        }
      ],
      "name": "getStrategy",
      "outputs": [
        {
          "internalType": "address",
          "name": "",
          "type": "address"
        }
      ],
      "stateMutability": "view",
      "type": "function"
    },
    {
      "inputs": [],
      "name": "owner",
      "outputs": [
        {
          "internalType": "address",
          "name": "",
          "type": "address"
        }
      ],
      "stateMutability": "view",
      "type": "function"
    },
    {
      "inputs": [],
      "name": "renounceOwnership",
      "outputs": [],
      "stateMutability": "nonpayable",
      "type": "function"
    },
    {
      "inputs": [
        {
          "internalType": "uint256",
          "name": "",
          "type": "uint256"
        }
      ],
      "name": "strategyList",
      "outputs": [
        {
          "internalType": "address",
          "name": "",
          "type": "address"
        }
      ],
      "stateMutability": "view",
      "type": "function"
    },
    {
      "inputs": [],
      "name": "strategyListLength",
      "outputs": [
        {
          "internalType": "uint256",
          "name": "",
          "type": "uint256"
        }
      ],
      "stateMutability": "view",
      "type": "function"
    },
    {
      "inputs": [
        {
          "internalType": "address",
          "name": "newOwner",
          "type": "address"
        }
      ],
      "name": "transferOwnership",
      "outputs": [],
      "stateMutability": "nonpayable",
      "type": "function"
    }
  ],
  "bytecode": "0x608060405234801561001057600080fd5b5060006100216100c460201b60201c565b9050806000806101000a81548173ffffffffffffffffffffffffffffffffffffffff021916908373ffffffffffffffffffffffffffffffffffffffff1602179055508073ffffffffffffffffffffffffffffffffffffffff16600073ffffffffffffffffffffffffffffffffffffffff167f8be0079c531659141344cd1fd0a4f28419497f9722a3daafe3b4186f6b6457e060405160405180910390a3506100cc565b600033905090565b6120e0806100db6000396000f3fe608060405234801561001057600080fd5b506004361061007d5760003560e01c80637bec9b181161005b5780637bec9b18146102545780638da5cb5b14610272578063a267526b146102a6578063f2fde38b146102fe5761007d565b806361cc30c914610082578063715018a61461015157806379babf241461015b575b600080fd5b61014f6004803603606081101561009857600080fd5b81019080803590602001906401000000008111156100b557600080fd5b8201836020820111156100c757600080fd5b803590602001918460018302840111640100000000831117156100e957600080fd5b91908080601f016020809104026020016040519081016040528093929190818152602001838380828437600081840152601f19601f8201169050808301925050505050505091929192908035906020019092919080359060200190929190505050610342565b005b610159610875565b005b6102286004803603606081101561017157600080fd5b810190808035906020019064010000000081111561018e57600080fd5b8201836020820111156101a057600080fd5b803590602001918460018302840111640100000000831117156101c257600080fd5b91908080601f016020809104026020016040519081016040528093929190818152602001838380828437600081840152601f19601f82011690508083019250505050505050919291929080359060200190929190803590602001909291905050506109e2565b604051808273ffffffffffffffffffffffffffffffffffffffff16815260200191505060405180910390f35b61025c610a47565b6040518082815260200191505060405180910390f35b61027a610a54565b604051808273ffffffffffffffffffffffffffffffffffffffff16815260200191505060405180910390f35b6102d2600480360360208110156102bc57600080fd5b8101908080359060200190929190505050610a7d565b604051808273ffffffffffffffffffffffffffffffffffffffff16815260200191505060405180910390f35b6103406004803603602081101561031457600080fd5b81019080803573ffffffffffffffffffffffffffffffffffffffff169060200190929190505050610abc565b005b600073ffffffffffffffffffffffffffffffffffffffff166001846040518082805190602001908083835b60208310610390578051825260208201915060208101905060208303925061036d565b6001836020036101000a03801982511681845116808217855250505050505090500191505090815260200160405180910390206000848152602001908152602001600020600083815260200190815260200160002060009054906101000a900473ffffffffffffffffffffffffffffffffffffffff1673ffffffffffffffffffffffffffffffffffffffff161461048f576040517f08c379a000000000000000000000000000000000000000000000000000000000815260040180806020018281038252601b8152602001807f537472617465677956313a2053545241544547595f455849535453000000000081525060200191505060405180910390fd5b600080604051806020016104a290610cb6565b6020820181038252601f19601f820116604052509050600085858560405160200180807f5374726174656779563100000000000000000000000000000000000000000000815250600a0184805190602001908083835b6020831061051b57805182526020820191506020810190506020830392506104f8565b6001836020036101000a0380198251168184511680821785525050505050509050018381526020018281526020019350505050604051602081830303815290604052805190602001209050808251602084016000f592508273ffffffffffffffffffffffffffffffffffffffff1663977d08c08787876040518463ffffffff1660e01b81526004018080602001848152602001838152602001828103825285818151815260200191508051906020019080838360005b838110156105ec5780820151818401526020810190506105d1565b50505050905090810190601f1680156106195780820380516001836020036101000a031916815260200191505b50945050505050600060405180830381600087803b15801561063a57600080fd5b505af115801561064e573d6000803e3d6000fd5b50505050826001876040518082805190602001908083835b602083106106895780518252602082019150602081019050602083039250610666565b6001836020036101000a03801982511681845116808217855250505050505090500191505090815260200160405180910390206000878152602001908152602001600020600086815260200190815260200160002060006101000a81548173ffffffffffffffffffffffffffffffffffffffff021916908373ffffffffffffffffffffffffffffffffffffffff1602179055506002839080600181540180825580915050600190039060005260206000200160009091909190916101000a81548173ffffffffffffffffffffffffffffffffffffffff021916908373ffffffffffffffffffffffffffffffffffffffff1602179055503373ffffffffffffffffffffffffffffffffffffffff167f05bb27623ebc7de03ce86ccc78d0ee513c20d67484b2752ecbf1ca1a35d442868787878760028054905060405180806020018681526020018581526020018473ffffffffffffffffffffffffffffffffffffffff168152602001838152602001828103825287818151815260200191508051906020019080838360005b8381101561082f578082015181840152602081019050610814565b50505050905090810190601f16801561085c5780820380516001836020036101000a031916815260200191505b50965050505050505060405180910390a2505050505050565b61087d610cae565b73ffffffffffffffffffffffffffffffffffffffff1661089b610a54565b73ffffffffffffffffffffffffffffffffffffffff1614610924576040517f08c379a00000000000000000000000000000000000000000000000000000000081526004018080602001828103825260208152602001807f4f776e61626c653a2063616c6c6572206973206e6f7420746865206f776e657281525060200191505060405180910390fd5b600073ffffffffffffffffffffffffffffffffffffffff1660008054906101000a900473ffffffffffffffffffffffffffffffffffffffff1673ffffffffffffffffffffffffffffffffffffffff167f8be0079c531659141344cd1fd0a4f28419497f9722a3daafe3b4186f6b6457e060405160405180910390a360008060006101000a81548173ffffffffffffffffffffffffffffffffffffffff021916908373ffffffffffffffffffffffffffffffffffffffff160217905550565b600183805160208101820180518482526020830160208501208183528095505050505050602052816000526040600020602052806000526040600020600092509250509054906101000a900473ffffffffffffffffffffffffffffffffffffffff1681565b6000600280549050905090565b60008060009054906101000a900473ffffffffffffffffffffffffffffffffffffffff16905090565b60028181548110610a8d57600080fd5b906000526020600020016000915054906101000a900473ffffffffffffffffffffffffffffffffffffffff1681565b610ac4610cae565b73ffffffffffffffffffffffffffffffffffffffff16610ae2610a54565b73ffffffffffffffffffffffffffffffffffffffff1614610b6b576040517f08c379a00000000000000000000000000000000000000000000000000000000081526004018080602001828103825260208152602001807f4f776e61626c653a2063616c6c6572206973206e6f7420746865206f776e657281525060200191505060405180910390fd5b600073ffffffffffffffffffffffffffffffffffffffff168173ffffffffffffffffffffffffffffffffffffffff161415610bf1576040517f08c379a00000000000000000000000000000000000000000000000000000000081526004018080602001828103825260268152602001806120856026913960400191505060405180910390fd5b8073ffffffffffffffffffffffffffffffffffffffff1660008054906101000a900473ffffffffffffffffffffffffffffffffffffffff1673ffffffffffffffffffffffffffffffffffffffff167f8be0079c531659141344cd1fd0a4f28419497f9722a3daafe3b4186f6b6457e060405160405180910390a3806000806101000a81548173ffffffffffffffffffffffffffffffffffffffff021916908373ffffffffffffffffffffffffffffffffffffffff16021790555050565b600033905090565b6113c180610cc48339019056fe608060405234801561001057600080fd5b50600061002161010560201b60201c565b9050806000806101000a81548173ffffffffffffffffffffffffffffffffffffffff021916908373ffffffffffffffffffffffffffffffffffffffff1602179055508073ffffffffffffffffffffffffffffffffffffffff16600073ffffffffffffffffffffffffffffffffffffffff167f8be0079c531659141344cd1fd0a4f28419497f9722a3daafe3b4186f6b6457e060405160405180910390a35033600160006101000a81548173ffffffffffffffffffffffffffffffffffffffff021916908373ffffffffffffffffffffffffffffffffffffffff16021790555061010d565b600033905090565b6112a58061011c6000396000f3fe608060405234801561001057600080fd5b50600436106100935760003560e01c80638da5cb5b116100665780638da5cb5b1461010e578063977d08c014610142578063c45a015514610211578063ea8a1af014610245578063f2fde38b1461024f57610093565b8063200d2ed2146100985780633891c320146100b85780634e569e2b146100e6578063715018a614610104575b600080fd5b6100a0610293565b60405180821515815260200191505060405180910390f35b6100e4600480360360208110156100ce57600080fd5b81019080803590602001909291905050506102aa565b005b6100ee610680565b6040518082815260200191505060405180910390f35b61010c6106c7565b005b610116610834565b604051808273ffffffffffffffffffffffffffffffffffffffff16815260200191505060405180910390f35b61020f6004803603606081101561015857600080fd5b810190808035906020019064010000000081111561017557600080fd5b82018360208201111561018757600080fd5b803590602001918460018302840111640100000000831117156101a957600080fd5b91908080601f016020809104026020016040519081016040528093929190818152602001838380828437600081840152601f19601f820116905080830192505050505050509192919290803590602001909291908035906020019092919050505061085d565b005b610219610abe565b604051808273ffffffffffffffffffffffffffffffffffffffff16815260200191505060405180910390f35b61024d610ae4565b005b6102916004803603602081101561026557600080fd5b81019080803573ffffffffffffffffffffffffffffffffffffffff169060200190929190505050610c0a565b005b6000600660009054906101000a900460ff16905090565b6102fa6040518060400160405280600f81526020017f766f746520616d6f756e743a2025780000000000000000000000000000000000815250600083136102f25760006102f5565b60015b610dfc565b600660009054906101000a900460ff168015610317575060045442105b61036c576040517f08c379a000000000000000000000000000000000000000000000000000000000815260040180806020018281038252604681526020018061122a6046913960600191505060405180910390fd5b600181148061039a57507fffffffffffffffffffffffffffffffffffffffffffffffffffffffffffffffff81145b6103ef576040517f08c379a00000000000000000000000000000000000000000000000000000000081526004018080602001828103825260258152602001806112056025913960400191505060405180910390fd5b6000600760003373ffffffffffffffffffffffffffffffffffffffff1673ffffffffffffffffffffffffffffffffffffffff168152602001908152602001600020541415801561047e575080600760003373ffffffffffffffffffffffffffffffffffffffff1673ffffffffffffffffffffffffffffffffffffffff1681526020019081526020016000205414155b156105215780600760003373ffffffffffffffffffffffffffffffffffffffff1673ffffffffffffffffffffffffffffffffffffffff168152602001908152602001600020819055507f470e85c210966d0db60ec0630d5f4f1c5bc75e34b7701cf73cf055eda6fbebf83382604051808373ffffffffffffffffffffffffffffffffffffffff1681526020018281526020019250505060405180910390a161067d565b6000600760003373ffffffffffffffffffffffffffffffffffffffff1673ffffffffffffffffffffffffffffffffffffffff1681526020019081526020016000205414156106075780600760003373ffffffffffffffffffffffffffffffffffffffff1673ffffffffffffffffffffffffffffffffffffffff168152602001908152602001600020819055507f470e85c210966d0db60ec0630d5f4f1c5bc75e34b7701cf73cf055eda6fbebf83382604051808373ffffffffffffffffffffffffffffffffffffffff1681526020018281526020019250505060405180910390a161067c565b600061067b576040517f08c379a00000000000000000000000000000000000000000000000000000000081526004018080602001828103825260128152602001807f596f7520616c726561647920766f74656421000000000000000000000000000081525060200191505060405180910390fd5b5b5b50565b6000600760003373ffffffffffffffffffffffffffffffffffffffff1673ffffffffffffffffffffffffffffffffffffffff16815260200190815260200160002054905090565b6106cf610f05565b73ffffffffffffffffffffffffffffffffffffffff166106ed610834565b73ffffffffffffffffffffffffffffffffffffffff1614610776576040517f08c379a00000000000000000000000000000000000000000000000000000000081526004018080602001828103825260208152602001807f4f776e61626c653a2063616c6c6572206973206e6f7420746865206f776e657281525060200191505060405180910390fd5b600073ffffffffffffffffffffffffffffffffffffffff1660008054906101000a900473ffffffffffffffffffffffffffffffffffffffff1673ffffffffffffffffffffffffffffffffffffffff167f8be0079c531659141344cd1fd0a4f28419497f9722a3daafe3b4186f6b6457e060405160405180910390a360008060006101000a81548173ffffffffffffffffffffffffffffffffffffffff021916908373ffffffffffffffffffffffffffffffffffffffff160217905550565b60008060009054906101000a900473ffffffffffffffffffffffffffffffffffffffff16905090565b610865610f05565b73ffffffffffffffffffffffffffffffffffffffff16610883610834565b73ffffffffffffffffffffffffffffffffffffffff161461090c576040517f08c379a00000000000000000000000000000000000000000000000000000000081526004018080602001828103825260208152602001807f4f776e61626c653a2063616c6c6572206973206e6f7420746865206f776e657281525060200191505060405180910390fd5b600160009054906101000a900473ffffffffffffffffffffffffffffffffffffffff1673ffffffffffffffffffffffffffffffffffffffff163373ffffffffffffffffffffffffffffffffffffffff16146109cf576040517f08c379a00000000000000000000000000000000000000000000000000000000081526004018080602001828103825260148152602001807f47616e64616c6656313a20464f5242494444454e00000000000000000000000081525060200191505060405180910390fd5b6109f36040518060600160405280602c81526020016111d9602c9139848484610f0d565b33600260006101000a81548173ffffffffffffffffffffffffffffffffffffffff021916908373ffffffffffffffffffffffffffffffffffffffff1602179055508260039080519060200190610a4a9291906110b4565b5081600481905550806005819055506001600660006101000a81548160ff0219169083151502179055506001600760003373ffffffffffffffffffffffffffffffffffffffff1673ffffffffffffffffffffffffffffffffffffffff16815260200190815260200160002081905550505050565b600160009054906101000a900473ffffffffffffffffffffffffffffffffffffffff1681565b610aec610f05565b73ffffffffffffffffffffffffffffffffffffffff16610b0a610834565b73ffffffffffffffffffffffffffffffffffffffff1614610b93576040517f08c379a00000000000000000000000000000000000000000000000000000000081526004018080602001828103825260208152602001807f4f776e61626c653a2063616c6c6572206973206e6f7420746865206f776e657281525060200191505060405180910390fd5b6004544210610bed576040517f08c379a00000000000000000000000000000000000000000000000000000000081526004018080602001828103825260538152602001806111606053913960600191505060405180910390fd5b6000600660006101000a81548160ff021916908315150217905550565b610c12610f05565b73ffffffffffffffffffffffffffffffffffffffff16610c30610834565b73ffffffffffffffffffffffffffffffffffffffff1614610cb9576040517f08c379a00000000000000000000000000000000000000000000000000000000081526004018080602001828103825260208152602001807f4f776e61626c653a2063616c6c6572206973206e6f7420746865206f776e657281525060200191505060405180910390fd5b600073ffffffffffffffffffffffffffffffffffffffff168173ffffffffffffffffffffffffffffffffffffffff161415610d3f576040517f08c379a00000000000000000000000000000000000000000000000000000000081526004018080602001828103825260268152602001806111b36026913960400191505060405180910390fd5b8073ffffffffffffffffffffffffffffffffffffffff1660008054906101000a900473ffffffffffffffffffffffffffffffffffffffff1673ffffffffffffffffffffffffffffffffffffffff167f8be0079c531659141344cd1fd0a4f28419497f9722a3daafe3b4186f6b6457e060405160405180910390a3806000806101000a81548173ffffffffffffffffffffffffffffffffffffffff021916908373ffffffffffffffffffffffffffffffffffffffff16021790555050565b610f01828260405160240180806020018315158152602001828103825284818151815260200191508051906020019080838360005b83811015610e4c578082015181840152602081019050610e31565b50505050905090810190601f168015610e795780820380516001836020036101000a031916815260200191505b5093505050506040516020818303038152906040527fc3b55635000000000000000000000000000000000000000000000000000000007bffffffffffffffffffffffffffffffffffffffffffffffffffffffff19166020820180517bffffffffffffffffffffffffffffffffffffffffffffffffffffffff838183161783525050505061108b565b5050565b600033905090565b61108584848484604051602401808060200180602001858152602001848152602001838103835287818151815260200191508051906020019080838360005b83811015610f67578082015181840152602081019050610f4c565b50505050905090810190601f168015610f945780820380516001836020036101000a031916815260200191505b50838103825286818151815260200191508051906020019080838360005b83811015610fcd578082015181840152602081019050610fb2565b50505050905090810190601f168015610ffa5780820380516001836020036101000a031916815260200191505b5096505050505050506040516020818303038152906040527fd5cf17d0000000000000000000000000000000000000000000000000000000007bffffffffffffffffffffffffffffffffffffffffffffffffffffffff19166020820180517bffffffffffffffffffffffffffffffffffffffffffffffffffffffff838183161783525050505061108b565b50505050565b60008151905060006a636f6e736f6c652e6c6f679050602083016000808483855afa5050505050565b828054600181600116156101000203166002900490600052602060002090601f0160209004810192826110ea5760008555611131565b82601f1061110357805160ff1916838001178555611131565b82800160010185558215611131579182015b82811115611130578251825591602001919060010190611115565b5b50905061113e9190611142565b5090565b5b8082111561115b576000816000905550600101611143565b509056fe576527726520736f7272792c20796f752063616e6e6f742063616e63656c20612073747261746567792061667465722074686520706572666f726d616e63652077696e646f772068617320737461727465642e4f776e61626c653a206e6577206f776e657220697320746865207a65726f20616464726573734372656174696e6720737472617465677920666f722025732e2053746172743a2025642c20456e643a202564536f7272792c20796f752063616e277420766f7465206d6f7265207468616e206f6e636521576527726520736f7272792c20796f752063616e6e6f7420766f74652061667465722074686520706572666f726d616e63652077696e646f772068617320737461727465642ea2646970667358221220a4907465380359eafb360fd1984150ceca457d2790d26149b00efcb508ce151964736f6c634300070600334f776e61626c653a206e6577206f776e657220697320746865207a65726f2061646472657373a2646970667358221220f095aaf988b059b6d4bd3721beb5de10823f29cec2d9282be2e83b866abe3eb064736f6c63430007060033",
  "linkReferences": {},
  "deployedLinkReferences": {}
}