{
  "_format": "hh-sol-artifact-1",
  "contractName": "StrategyMarketNasdaq",
  "sourceName": "contracts/StrategyMarketNasdaq.sol",
  "abi": [
    {
      "inputs": [
        {
          "internalType": "string",
          "name": "symbol",
          "type": "string"
        },
        {
          "internalType": "uint256",
          "name": "windowStart",
          "type": "uint256"
        },
        {
          "internalType": "uint256",
          "name": "windowEnd",
          "type": "uint256"
        }
      ],
      "stateMutability": "nonpayable",
      "type": "constructor"
    },
    {
      "anonymous": false,
      "inputs": [
        {
          "indexed": false,
          "internalType": "address",
          "name": "address_",
          "type": "address"
        },
        {
          "indexed": false,
          "internalType": "int256",
          "name": "vote",
          "type": "int256"
        }
      ],
      "name": "NewVote",
      "type": "event"
    },
    {
      "anonymous": false,
      "inputs": [
        {
          "indexed": true,
          "internalType": "address",
          "name": "previousOwner",
          "type": "address"
        },
        {
          "indexed": true,
          "internalType": "address",
          "name": "newOwner",
          "type": "address"
        }
      ],
      "name": "OwnershipTransferred",
      "type": "event"
    },
    {
      "inputs": [],
      "name": "cancel",
      "outputs": [],
      "stateMutability": "nonpayable",
      "type": "function"
    },
    {
      "inputs": [],
      "name": "owner",
      "outputs": [
        {
          "internalType": "address",
          "name": "",
          "type": "address"
        }
      ],
      "stateMutability": "view",
      "type": "function"
    },
    {
      "inputs": [],
      "name": "readVote",
      "outputs": [
        {
          "internalType": "int256",
          "name": "",
          "type": "int256"
        }
      ],
      "stateMutability": "view",
      "type": "function"
    },
    {
      "inputs": [],
      "name": "renounceOwnership",
      "outputs": [],
      "stateMutability": "nonpayable",
      "type": "function"
    },
    {
      "inputs": [],
      "name": "status",
      "outputs": [
        {
          "internalType": "bool",
          "name": "",
          "type": "bool"
        }
      ],
      "stateMutability": "view",
      "type": "function"
    },
    {
      "inputs": [
        {
          "internalType": "address",
          "name": "newOwner",
          "type": "address"
        }
      ],
      "name": "transferOwnership",
      "outputs": [],
      "stateMutability": "nonpayable",
      "type": "function"
    },
    {
      "inputs": [
        {
          "internalType": "int256",
          "name": "voteAmount",
          "type": "int256"
        }
      ],
      "name": "vote",
      "outputs": [],
      "stateMutability": "nonpayable",
      "type": "function"
    }
  ],
  "bytecode": "0x60806040523480156200001157600080fd5b506040516200139f3803806200139f833981810160405260608110156200003757600080fd5b81019080805160405193929190846401000000008211156200005857600080fd5b838201915060208201858111156200006f57600080fd5b82518660018202830111640100000000821117156200008d57600080fd5b8083526020830192505050908051906020019080838360005b83811015620000c3578082015181840152602081019050620000a6565b50505050905090810190601f168015620000f15780820380516001836020036101000a031916815260200191505b506040526020018051906020019092919080519060200190929190505050600062000121620002c260201b60201c565b9050806000806101000a81548173ffffffffffffffffffffffffffffffffffffffff021916908373ffffffffffffffffffffffffffffffffffffffff1602179055508073ffffffffffffffffffffffffffffffffffffffff16600073ffffffffffffffffffffffffffffffffffffffff167f8be0079c531659141344cd1fd0a4f28419497f9722a3daafe3b4186f6b6457e060405160405180910390a350620001f16040518060600160405280602c815260200162001373602c9139848484620002ca60201b62000a5c1760201c565b33600160006101000a81548173ffffffffffffffffffffffffffffffffffffffff021916908373ffffffffffffffffffffffffffffffffffffffff16021790555082600290805190602001906200024a9291906200047f565b5081600381905550806004819055506001600560006101000a81548160ff0219169083151502179055506001600660003373ffffffffffffffffffffffffffffffffffffffff1673ffffffffffffffffffffffffffffffffffffffff1681526020019081526020016000208190555050505062000535565b600033905090565b6200045084848484604051602401808060200180602001858152602001848152602001838103835287818151815260200191508051906020019080838360005b83811015620003275780820151818401526020810190506200030a565b50505050905090810190601f168015620003555780820380516001836020036101000a031916815260200191505b50838103825286818151815260200191508051906020019080838360005b838110156200039057808201518184015260208101905062000373565b50505050905090810190601f168015620003be5780820380516001836020036101000a031916815260200191505b5096505050505050506040516020818303038152906040527fd5cf17d0000000000000000000000000000000000000000000000000000000007bffffffffffffffffffffffffffffffffffffffffffffffffffffffff19166020820180517bffffffffffffffffffffffffffffffffffffffffffffffffffffffff83818316178352505050506200045660201b60201c565b50505050565b60008151905060006a636f6e736f6c652e6c6f679050602083016000808483855afa5050505050565b828054600181600116156101000203166002900490600052602060002090601f016020900481019282620004b7576000855562000503565b82601f10620004d257805160ff191683800117855562000503565b8280016001018555821562000503579182015b8281111562000502578251825591602001919060010190620004e5565b5b50905062000512919062000516565b5090565b5b808211156200053157600081600090555060010162000517565b5090565b610e2e80620005456000396000f3fe608060405234801561001057600080fd5b506004361061007d5760003560e01c8063715018a61161005b578063715018a6146100ee5780638da5cb5b146100f8578063ea8a1af01461012c578063f2fde38b146101365761007d565b8063200d2ed2146100825780633891c320146100a25780634e569e2b146100d0575b600080fd5b61008a61017a565b60405180821515815260200191505060405180910390f35b6100ce600480360360208110156100b857600080fd5b8101908080359060200190929190505050610191565b005b6100d8610567565b6040518082815260200191505060405180910390f35b6100f66105ae565b005b61010061071b565b604051808273ffffffffffffffffffffffffffffffffffffffff16815260200191505060405180910390f35b610134610744565b005b6101786004803603602081101561014c57600080fd5b81019080803573ffffffffffffffffffffffffffffffffffffffff16906020019092919050505061086a565b005b6000600560009054906101000a900460ff16905090565b6101e16040518060400160405280600f81526020017f766f746520616d6f756e743a2025780000000000000000000000000000000000815250600083136101d95760006101dc565b60015b610bda565b600560009054906101000a900460ff1680156101fe575060035442105b610253576040517f08c379a0000000000000000000000000000000000000000000000000000000008152600401808060200182810382526046815260200180610db36046913960600191505060405180910390fd5b600181148061028157507fffffffffffffffffffffffffffffffffffffffffffffffffffffffffffffffff81145b6102d6576040517f08c379a0000000000000000000000000000000000000000000000000000000008152600401808060200182810382526025815260200180610d8e6025913960400191505060405180910390fd5b6000600660003373ffffffffffffffffffffffffffffffffffffffff1673ffffffffffffffffffffffffffffffffffffffff1681526020019081526020016000205414158015610365575080600660003373ffffffffffffffffffffffffffffffffffffffff1673ffffffffffffffffffffffffffffffffffffffff1681526020019081526020016000205414155b156104085780600660003373ffffffffffffffffffffffffffffffffffffffff1673ffffffffffffffffffffffffffffffffffffffff168152602001908152602001600020819055507f470e85c210966d0db60ec0630d5f4f1c5bc75e34b7701cf73cf055eda6fbebf83382604051808373ffffffffffffffffffffffffffffffffffffffff1681526020018281526020019250505060405180910390a1610564565b6000600660003373ffffffffffffffffffffffffffffffffffffffff1673ffffffffffffffffffffffffffffffffffffffff1681526020019081526020016000205414156104ee5780600660003373ffffffffffffffffffffffffffffffffffffffff1673ffffffffffffffffffffffffffffffffffffffff168152602001908152602001600020819055507f470e85c210966d0db60ec0630d5f4f1c5bc75e34b7701cf73cf055eda6fbebf83382604051808373ffffffffffffffffffffffffffffffffffffffff1681526020018281526020019250505060405180910390a1610563565b6000610562576040517f08c379a00000000000000000000000000000000000000000000000000000000081526004018080602001828103825260128152602001807f596f7520616c726561647920766f74656421000000000000000000000000000081525060200191505060405180910390fd5b5b5b50565b6000600660003373ffffffffffffffffffffffffffffffffffffffff1673ffffffffffffffffffffffffffffffffffffffff16815260200190815260200160002054905090565b6105b6610ce3565b73ffffffffffffffffffffffffffffffffffffffff166105d461071b565b73ffffffffffffffffffffffffffffffffffffffff161461065d576040517f08c379a00000000000000000000000000000000000000000000000000000000081526004018080602001828103825260208152602001807f4f776e61626c653a2063616c6c6572206973206e6f7420746865206f776e657281525060200191505060405180910390fd5b600073ffffffffffffffffffffffffffffffffffffffff1660008054906101000a900473ffffffffffffffffffffffffffffffffffffffff1673ffffffffffffffffffffffffffffffffffffffff167f8be0079c531659141344cd1fd0a4f28419497f9722a3daafe3b4186f6b6457e060405160405180910390a360008060006101000a81548173ffffffffffffffffffffffffffffffffffffffff021916908373ffffffffffffffffffffffffffffffffffffffff160217905550565b60008060009054906101000a900473ffffffffffffffffffffffffffffffffffffffff16905090565b61074c610ce3565b73ffffffffffffffffffffffffffffffffffffffff1661076a61071b565b73ffffffffffffffffffffffffffffffffffffffff16146107f3576040517f08c379a00000000000000000000000000000000000000000000000000000000081526004018080602001828103825260208152602001807f4f776e61626c653a2063616c6c6572206973206e6f7420746865206f776e657281525060200191505060405180910390fd5b600354421061084d576040517f08c379a0000000000000000000000000000000000000000000000000000000008152600401808060200182810382526053815260200180610d156053913960600191505060405180910390fd5b6000600560006101000a81548160ff021916908315150217905550565b610872610ce3565b73ffffffffffffffffffffffffffffffffffffffff1661089061071b565b73ffffffffffffffffffffffffffffffffffffffff1614610919576040517f08c379a00000000000000000000000000000000000000000000000000000000081526004018080602001828103825260208152602001807f4f776e61626c653a2063616c6c6572206973206e6f7420746865206f776e657281525060200191505060405180910390fd5b600073ffffffffffffffffffffffffffffffffffffffff168173ffffffffffffffffffffffffffffffffffffffff16141561099f576040517f08c379a0000000000000000000000000000000000000000000000000000000008152600401808060200182810382526026815260200180610d686026913960400191505060405180910390fd5b8073ffffffffffffffffffffffffffffffffffffffff1660008054906101000a900473ffffffffffffffffffffffffffffffffffffffff1673ffffffffffffffffffffffffffffffffffffffff167f8be0079c531659141344cd1fd0a4f28419497f9722a3daafe3b4186f6b6457e060405160405180910390a3806000806101000a81548173ffffffffffffffffffffffffffffffffffffffff021916908373ffffffffffffffffffffffffffffffffffffffff16021790555050565b610bd484848484604051602401808060200180602001858152602001848152602001838103835287818151815260200191508051906020019080838360005b83811015610ab6578082015181840152602081019050610a9b565b50505050905090810190601f168015610ae35780820380516001836020036101000a031916815260200191505b50838103825286818151815260200191508051906020019080838360005b83811015610b1c578082015181840152602081019050610b01565b50505050905090810190601f168015610b495780820380516001836020036101000a031916815260200191505b5096505050505050506040516020818303038152906040527fd5cf17d0000000000000000000000000000000000000000000000000000000007bffffffffffffffffffffffffffffffffffffffffffffffffffffffff19166020820180517bffffffffffffffffffffffffffffffffffffffffffffffffffffffff8381831617835250505050610ceb565b50505050565b610cdf828260405160240180806020018315158152602001828103825284818151815260200191508051906020019080838360005b83811015610c2a578082015181840152602081019050610c0f565b50505050905090810190601f168015610c575780820380516001836020036101000a031916815260200191505b5093505050506040516020818303038152906040527fc3b55635000000000000000000000000000000000000000000000000000000007bffffffffffffffffffffffffffffffffffffffffffffffffffffffff19166020820180517bffffffffffffffffffffffffffffffffffffffffffffffffffffffff8381831617835250505050610ceb565b5050565b600033905090565b60008151905060006a636f6e736f6c652e6c6f679050602083016000808483855afa505050505056fe576527726520736f7272792c20796f752063616e6e6f742063616e63656c20612073747261746567792061667465722074686520706572666f726d616e63652077696e646f772068617320737461727465642e4f776e61626c653a206e6577206f776e657220697320746865207a65726f2061646472657373536f7272792c20796f752063616e277420766f7465206d6f7265207468616e206f6e636521576527726520736f7272792c20796f752063616e6e6f7420766f74652061667465722074686520706572666f726d616e63652077696e646f772068617320737461727465642ea2646970667358221220c1d3436f72d20760d8c46bbcff9c44d7ceaf8aac32c44e275af3cbeed11a072264736f6c634300070600334372656174696e6720737472617465677920666f722025732e2053746172743a2025642c20456e643a202564",
  "linkReferences": {},
  "deployedLinkReferences": {}
}