{
  "_format": "hh-sol-artifact-1",
  "contractName": "StrategyV1Market",
  "sourceName": "contracts/StrategyV1Market.sol",
  "abi": [
    {
      "inputs": [],
      "stateMutability": "nonpayable",
      "type": "constructor"
    },
    {
      "anonymous": false,
      "inputs": [
        {
          "indexed": false,
          "internalType": "address",
          "name": "address_",
          "type": "address"
        },
        {
          "indexed": false,
          "internalType": "int256",
          "name": "vote",
          "type": "int256"
        }
      ],
      "name": "NewVote",
      "type": "event"
    },
    {
      "anonymous": false,
      "inputs": [
        {
          "indexed": true,
          "internalType": "address",
          "name": "previousOwner",
          "type": "address"
        },
        {
          "indexed": true,
          "internalType": "address",
          "name": "newOwner",
          "type": "address"
        }
      ],
      "name": "OwnershipTransferred",
      "type": "event"
    },
    {
      "inputs": [],
      "name": "cancel",
      "outputs": [],
      "stateMutability": "nonpayable",
      "type": "function"
    },
    {
      "inputs": [],
      "name": "factory",
      "outputs": [
        {
          "internalType": "address",
          "name": "",
          "type": "address"
        }
      ],
      "stateMutability": "view",
      "type": "function"
    },
    {
      "inputs": [
        {
          "internalType": "string",
          "name": "_symbol",
          "type": "string"
        },
        {
          "internalType": "uint256",
          "name": "_start",
          "type": "uint256"
        },
        {
          "internalType": "uint256",
          "name": "_end",
          "type": "uint256"
        }
      ],
      "name": "initialize",
      "outputs": [],
      "stateMutability": "nonpayable",
      "type": "function"
    },
    {
      "inputs": [],
      "name": "owner",
      "outputs": [
        {
          "internalType": "address",
          "name": "",
          "type": "address"
        }
      ],
      "stateMutability": "view",
      "type": "function"
    },
    {
      "inputs": [],
      "name": "readVote",
      "outputs": [
        {
          "internalType": "int256",
          "name": "",
          "type": "int256"
        }
      ],
      "stateMutability": "view",
      "type": "function"
    },
    {
      "inputs": [],
      "name": "renounceOwnership",
      "outputs": [],
      "stateMutability": "nonpayable",
      "type": "function"
    },
    {
      "inputs": [],
      "name": "status",
      "outputs": [
        {
          "internalType": "bool",
          "name": "",
          "type": "bool"
        }
      ],
      "stateMutability": "view",
      "type": "function"
    },
    {
      "inputs": [
        {
          "internalType": "address",
          "name": "newOwner",
          "type": "address"
        }
      ],
      "name": "transferOwnership",
      "outputs": [],
      "stateMutability": "nonpayable",
      "type": "function"
    },
    {
      "inputs": [
        {
          "internalType": "int256",
          "name": "voteAmount",
          "type": "int256"
        }
      ],
      "name": "vote",
      "outputs": [],
      "stateMutability": "nonpayable",
      "type": "function"
    }
  ],
  "bytecode": "0x608060405234801561001057600080fd5b50600061002161010560201b60201c565b9050806000806101000a81548173ffffffffffffffffffffffffffffffffffffffff021916908373ffffffffffffffffffffffffffffffffffffffff1602179055508073ffffffffffffffffffffffffffffffffffffffff16600073ffffffffffffffffffffffffffffffffffffffff167f8be0079c531659141344cd1fd0a4f28419497f9722a3daafe3b4186f6b6457e060405160405180910390a35033600160006101000a81548173ffffffffffffffffffffffffffffffffffffffff021916908373ffffffffffffffffffffffffffffffffffffffff16021790555061010d565b600033905090565b6112a58061011c6000396000f3fe608060405234801561001057600080fd5b50600436106100935760003560e01c80638da5cb5b116100665780638da5cb5b1461010e578063977d08c014610142578063c45a015514610211578063ea8a1af014610245578063f2fde38b1461024f57610093565b8063200d2ed2146100985780633891c320146100b85780634e569e2b146100e6578063715018a614610104575b600080fd5b6100a0610293565b60405180821515815260200191505060405180910390f35b6100e4600480360360208110156100ce57600080fd5b81019080803590602001909291905050506102aa565b005b6100ee610680565b6040518082815260200191505060405180910390f35b61010c6106c7565b005b610116610834565b604051808273ffffffffffffffffffffffffffffffffffffffff16815260200191505060405180910390f35b61020f6004803603606081101561015857600080fd5b810190808035906020019064010000000081111561017557600080fd5b82018360208201111561018757600080fd5b803590602001918460018302840111640100000000831117156101a957600080fd5b91908080601f016020809104026020016040519081016040528093929190818152602001838380828437600081840152601f19601f820116905080830192505050505050509192919290803590602001909291908035906020019092919050505061085d565b005b610219610abe565b604051808273ffffffffffffffffffffffffffffffffffffffff16815260200191505060405180910390f35b61024d610ae4565b005b6102916004803603602081101561026557600080fd5b81019080803573ffffffffffffffffffffffffffffffffffffffff169060200190929190505050610c0a565b005b6000600660009054906101000a900460ff16905090565b6102fa6040518060400160405280600f81526020017f766f746520616d6f756e743a2025780000000000000000000000000000000000815250600083136102f25760006102f5565b60015b610dfc565b600660009054906101000a900460ff168015610317575060045442105b61036c576040517f08c379a000000000000000000000000000000000000000000000000000000000815260040180806020018281038252604681526020018061122a6046913960600191505060405180910390fd5b600181148061039a57507fffffffffffffffffffffffffffffffffffffffffffffffffffffffffffffffff81145b6103ef576040517f08c379a00000000000000000000000000000000000000000000000000000000081526004018080602001828103825260258152602001806112056025913960400191505060405180910390fd5b6000600760003373ffffffffffffffffffffffffffffffffffffffff1673ffffffffffffffffffffffffffffffffffffffff168152602001908152602001600020541415801561047e575080600760003373ffffffffffffffffffffffffffffffffffffffff1673ffffffffffffffffffffffffffffffffffffffff1681526020019081526020016000205414155b156105215780600760003373ffffffffffffffffffffffffffffffffffffffff1673ffffffffffffffffffffffffffffffffffffffff168152602001908152602001600020819055507f470e85c210966d0db60ec0630d5f4f1c5bc75e34b7701cf73cf055eda6fbebf83382604051808373ffffffffffffffffffffffffffffffffffffffff1681526020018281526020019250505060405180910390a161067d565b6000600760003373ffffffffffffffffffffffffffffffffffffffff1673ffffffffffffffffffffffffffffffffffffffff1681526020019081526020016000205414156106075780600760003373ffffffffffffffffffffffffffffffffffffffff1673ffffffffffffffffffffffffffffffffffffffff168152602001908152602001600020819055507f470e85c210966d0db60ec0630d5f4f1c5bc75e34b7701cf73cf055eda6fbebf83382604051808373ffffffffffffffffffffffffffffffffffffffff1681526020018281526020019250505060405180910390a161067c565b600061067b576040517f08c379a00000000000000000000000000000000000000000000000000000000081526004018080602001828103825260128152602001807f596f7520616c726561647920766f74656421000000000000000000000000000081525060200191505060405180910390fd5b5b5b50565b6000600760003373ffffffffffffffffffffffffffffffffffffffff1673ffffffffffffffffffffffffffffffffffffffff16815260200190815260200160002054905090565b6106cf610f05565b73ffffffffffffffffffffffffffffffffffffffff166106ed610834565b73ffffffffffffffffffffffffffffffffffffffff1614610776576040517f08c379a00000000000000000000000000000000000000000000000000000000081526004018080602001828103825260208152602001807f4f776e61626c653a2063616c6c6572206973206e6f7420746865206f776e657281525060200191505060405180910390fd5b600073ffffffffffffffffffffffffffffffffffffffff1660008054906101000a900473ffffffffffffffffffffffffffffffffffffffff1673ffffffffffffffffffffffffffffffffffffffff167f8be0079c531659141344cd1fd0a4f28419497f9722a3daafe3b4186f6b6457e060405160405180910390a360008060006101000a81548173ffffffffffffffffffffffffffffffffffffffff021916908373ffffffffffffffffffffffffffffffffffffffff160217905550565b60008060009054906101000a900473ffffffffffffffffffffffffffffffffffffffff16905090565b610865610f05565b73ffffffffffffffffffffffffffffffffffffffff16610883610834565b73ffffffffffffffffffffffffffffffffffffffff161461090c576040517f08c379a00000000000000000000000000000000000000000000000000000000081526004018080602001828103825260208152602001807f4f776e61626c653a2063616c6c6572206973206e6f7420746865206f776e657281525060200191505060405180910390fd5b600160009054906101000a900473ffffffffffffffffffffffffffffffffffffffff1673ffffffffffffffffffffffffffffffffffffffff163373ffffffffffffffffffffffffffffffffffffffff16146109cf576040517f08c379a00000000000000000000000000000000000000000000000000000000081526004018080602001828103825260148152602001807f47616e64616c6656313a20464f5242494444454e00000000000000000000000081525060200191505060405180910390fd5b6109f36040518060600160405280602c81526020016111d9602c9139848484610f0d565b33600260006101000a81548173ffffffffffffffffffffffffffffffffffffffff021916908373ffffffffffffffffffffffffffffffffffffffff1602179055508260039080519060200190610a4a9291906110b4565b5081600481905550806005819055506001600660006101000a81548160ff0219169083151502179055506001600760003373ffffffffffffffffffffffffffffffffffffffff1673ffffffffffffffffffffffffffffffffffffffff16815260200190815260200160002081905550505050565b600160009054906101000a900473ffffffffffffffffffffffffffffffffffffffff1681565b610aec610f05565b73ffffffffffffffffffffffffffffffffffffffff16610b0a610834565b73ffffffffffffffffffffffffffffffffffffffff1614610b93576040517f08c379a00000000000000000000000000000000000000000000000000000000081526004018080602001828103825260208152602001807f4f776e61626c653a2063616c6c6572206973206e6f7420746865206f776e657281525060200191505060405180910390fd5b6004544210610bed576040517f08c379a00000000000000000000000000000000000000000000000000000000081526004018080602001828103825260538152602001806111606053913960600191505060405180910390fd5b6000600660006101000a81548160ff021916908315150217905550565b610c12610f05565b73ffffffffffffffffffffffffffffffffffffffff16610c30610834565b73ffffffffffffffffffffffffffffffffffffffff1614610cb9576040517f08c379a00000000000000000000000000000000000000000000000000000000081526004018080602001828103825260208152602001807f4f776e61626c653a2063616c6c6572206973206e6f7420746865206f776e657281525060200191505060405180910390fd5b600073ffffffffffffffffffffffffffffffffffffffff168173ffffffffffffffffffffffffffffffffffffffff161415610d3f576040517f08c379a00000000000000000000000000000000000000000000000000000000081526004018080602001828103825260268152602001806111b36026913960400191505060405180910390fd5b8073ffffffffffffffffffffffffffffffffffffffff1660008054906101000a900473ffffffffffffffffffffffffffffffffffffffff1673ffffffffffffffffffffffffffffffffffffffff167f8be0079c531659141344cd1fd0a4f28419497f9722a3daafe3b4186f6b6457e060405160405180910390a3806000806101000a81548173ffffffffffffffffffffffffffffffffffffffff021916908373ffffffffffffffffffffffffffffffffffffffff16021790555050565b610f01828260405160240180806020018315158152602001828103825284818151815260200191508051906020019080838360005b83811015610e4c578082015181840152602081019050610e31565b50505050905090810190601f168015610e795780820380516001836020036101000a031916815260200191505b5093505050506040516020818303038152906040527fc3b55635000000000000000000000000000000000000000000000000000000007bffffffffffffffffffffffffffffffffffffffffffffffffffffffff19166020820180517bffffffffffffffffffffffffffffffffffffffffffffffffffffffff838183161783525050505061108b565b5050565b600033905090565b61108584848484604051602401808060200180602001858152602001848152602001838103835287818151815260200191508051906020019080838360005b83811015610f67578082015181840152602081019050610f4c565b50505050905090810190601f168015610f945780820380516001836020036101000a031916815260200191505b50838103825286818151815260200191508051906020019080838360005b83811015610fcd578082015181840152602081019050610fb2565b50505050905090810190601f168015610ffa5780820380516001836020036101000a031916815260200191505b5096505050505050506040516020818303038152906040527fd5cf17d0000000000000000000000000000000000000000000000000000000007bffffffffffffffffffffffffffffffffffffffffffffffffffffffff19166020820180517bffffffffffffffffffffffffffffffffffffffffffffffffffffffff838183161783525050505061108b565b50505050565b60008151905060006a636f6e736f6c652e6c6f679050602083016000808483855afa5050505050565b828054600181600116156101000203166002900490600052602060002090601f0160209004810192826110ea5760008555611131565b82601f1061110357805160ff1916838001178555611131565b82800160010185558215611131579182015b82811115611130578251825591602001919060010190611115565b5b50905061113e9190611142565b5090565b5b8082111561115b576000816000905550600101611143565b509056fe576527726520736f7272792c20796f752063616e6e6f742063616e63656c20612073747261746567792061667465722074686520706572666f726d616e63652077696e646f772068617320737461727465642e4f776e61626c653a206e6577206f776e657220697320746865207a65726f20616464726573734372656174696e6720737472617465677920666f722025732e2053746172743a2025642c20456e643a202564536f7272792c20796f752063616e277420766f7465206d6f7265207468616e206f6e636521576527726520736f7272792c20796f752063616e6e6f7420766f74652061667465722074686520706572666f726d616e63652077696e646f772068617320737461727465642ea2646970667358221220a4907465380359eafb360fd1984150ceca457d2790d26149b00efcb508ce151964736f6c63430007060033",
  "linkReferences": {},
  "deployedLinkReferences": {}
}